:020000040000FA
:0400000007EF00F016
:0A000800768204ED03F0B3EF10F070
:10060000000D0A00256400000600E1CF6CF0E2CF87
:100610006DF0D9CF6EF0DACF6FF0F3CF70F0F4CF8A
:1006200071F0F6CF72F0F7CF73F0F8CF74F0F5CF2A
:1006300075F0F2A20AD1F2980001CE51CF11D8B4D0
:1006400081A00BD0000ECF6E000ECE6ECD80F19C3F
:10065000000ECF6F010ECE6FF6D081B0F4D0CE0574
:10066000CF11D8A4F0D0CD90CF50696E686ACE502B
:100670006A6E6B6A68506A10076E69506B10086E7C
:10068000000E0A6E6E0E096E90EC0EF007C0BAF006
:1006900008C0BBF00001000EBBBFFF0EBC6FBD6FFA
:1006A000BAC06DF1BBC06EF1010169516A11D8A4E5
:1006B00011D00001CBBF0ED0CB5103E1CA05D8A0A9
:1006C00009D0BA51CA5D01016D6F0001BB51CB5910
:1006D00001016E6F040E010167196811D8A404D0DE
:1006E000000E686F050E676F030E67196811D8A4B6
:1006F00008D06DC1C4F06EC1C5F0000E686F040E65
:10070000676F020E67196811D8A408D06DC1C6F0D2
:100710006EC1C7F0000E686F030E676F6705681142
:10072000D8A408D06DC1C8F06EC1C9F0000E686FC2
:10073000020E676F050E67196811D8A441D0C8C0B2
:1007400001F0C9C002F0C6C003F0C7C004F0C6EC97
:1007500010F001C0A8F002C0A9F0A8C001F0A9C023
:1007600002F0C4C003F0C5C004F0C6EC10F001C034
:100770006DF102C06EF1000E0101686F000E676F2F
:10078000680E686EE40EE82EFED7682EFCD700D007
:10079000800E566E576A040E586E6DC159F06EC1C8
:1007A0005AF0A1EC0FF0800E0C6E0D6A010E0E6E69
:1007B000EAEC10F0800E026E036AE4EC0FF01FD03A
:1007C000680E686EE40EE82EFED7682EFCD700D0C7
:1007D000940E566E576A040E586E6DC159F06EC174
:1007E0005AF0A1EC0FF0940E0C6E0D6A010E0E6E15
:1007F000EAEC10F0940E026E036AE4EC0FF0F18C58
:10080000000E0001CF6F000ECE6F010169056A1165
:10081000D8A419D0BAC0CAF0BBC0CBF06D5100014A
:10082000CA5D01016D6F6E510001CB5901016E6F00
:10083000000E6A6F000E696FD00E686ECA0EE82E49
:10084000FED7682EFCD7F288F292F2A4BAD0CF0E6F
:10085000D76E2C0ED66E0001CE51CF11D8A4B0D0D9
:10086000000ECD6F000ECC6F6DC1D2F06EC1D3F013
:1008700086D0000E046E640E036ED2C001F0D3C0A9
:1008800002F0D2EC0EF001C0AAF002C0ABF0AAC098
:1008900001F0ABC002F0000E046E0A0E036ED2EC43
:1008A0000EF001C0CCF002C0CDF0000E026E000EC2
:1008B000016ECCC003F0CDC004F077EC0CF074D026
:1008C000000E046E640E036ED2C001F0D3C002F0BD
:1008D000D2EC0EF001C007F002C008F0000E0A6E64
:1008E0000A0E096E90EC0EF007C0CCF008C0CDF0F7
:1008F000000E026E010E016ECCC003F0CDC004F0FC
:1009000077EC0CF051D0030E046EE80E036ED2C0EB
:1009100001F0D3C002F0D2EC0EF001C007F002C02B
:1009200008F0000E0A6E640E096E90EC0EF007C01F
:10093000CCF008C0CDF0000E026E020E016ECCC0ED
:1009400003F0CDC004F077EC0CF02ED0D2C007F04D
:10095000D3C008F0030E0A6EE80E096E90EC0EF09C
:1009600007C0CCF008C0CDF0000E026E030E016E81
:10097000CCC003F0CDC004F077EC0CF015D0D0C0A3
:1009800068F0D1C069F06950000AD8A40DD0685051
:10099000000AD8B46ED7010AD8B492D7030AD8B4E3
:1009A000B2D7010AD8B4D2D70001D04BD12B040E54
:1009B000D019D111D8A404D0000ED16F000ED06F81
:1009C000F29475C0F5FF74C0F8FF73C0F7FF72C0F2
:1009D000F6FF71C0F4FF70C0F3FF6FC0DAFF6EC0A6
:1009E000D9FF6DC0E2FF6CC0E1FF7692110012C129
:1009F0002AF113C12BF114C12CF115C12DF116C12F
:100A00002EF117C12FF118C130F119C131F131AFF9
:100A100002D0010E01D0000E286F296B2851291138
:100A2000D8B410D0311F301F2F1F2E1F2D1F2C1F89
:100A30002B1F2A6D000E2B232C232D232E232F2337
:100A4000302331230001C1AFC293C1BF05D0C151D2
:100A500009E1C005D8B006D0000E0101256F010ED6
:100A6000246F04D0C0C024F1C1C025F1BEC026F15E
:100A7000BFC027F1010128512911D8A403D00001DA
:100A8000C2A504D001012607D8A02707000E010146
:100A9000336F1F0E326F000E8E6F7ED00101320752
:100AA000D8A033076F0E3225D96E010E3321DA6ECE
:100AB0002AC100F12BC101F12CC102F12DC103F1BA
:100AC0002EC104F12FC105F130C106F131C107F18A
:100AD0000A0E086F000E096F000E0A6F000E0B6FF2
:100AE000000E0C6F000E0D6F000E0E6F000E0F6FDC
:100AF000B3EC0AF000C11AF101C11BF102C11CF1F3
:100B000003C11DF104C11EF105C11FF106C120F191
:100B100007C121F11AC1AEF01CC1AFF03AEC10F0E0
:100B2000AE51300FDF6E01012407D8A0250726073C
:100B3000D8A027072AC100F12BC101F12CC102F175
:100B40002DC103F12EC104F12FC105F130C106F111
:100B500031C107F10A0E086F000E096F000E0A6F0F
:100B6000000E0B6F000E0C6F000E0D6F000E0E6F5F
:100B7000000E0F6FBAEC08F000C12AF101C12BF191
:100B800002C12CF103C12DF104C12EF105C12FF1D9
:100B900006C130F107C131F1010133BF20D033511B
:100BA00003E13205D8A01BD02A512B112C112D1195
:100BB0002E112F1130113111D8A470D725BF05D0B7
:100BC000255102E12405D8B069D727BF08D02751A5
:100BD00003E12605D8A003D00001C2B35FD701010D
:100BE00028512911D8A403D00001C2A518D00101B1
:100BF0003207D8A0330728512911D8A404D0000EF9
:100C0000236F2B0E03D0000E236F2D0E226F6F0E5D
:100C10003225D96E010E3321DA6E22C1DFFF10C1F9
:100C200003F111C104F16F0E01013225056F010EB0
:100C30003321066F26C107F127C108F14DEC0DF0F5
:100C400003C110F104C111F112001EC036F01FC023
:100C500037F020C038F021C039F022C03AF023C06C
:100C60003BF024C03CF025C03DF03DAE02D0010E6B
:100C700001D0000E346E356A34503510D8B410D01F
:100C80003D1E3C1E3B1E3A1E391E381E371E366C5A
:100C9000000E3722382239223A223B223C223D22C2
:100CA000C1AFC293C1BF05D0C15108E1C005D8B0E2
:100CB00005D0000E316E010E306E04D0C0C030F091
:100CC000C1C031F0BEC032F0BFC033F03450351077
:100CD000D8A402D0C2A503D03206D8A03306000E95
:100CE0003F6E1F0E3E6E000E01018E6F7CD03E06E1
:100CF000D8A03F066F0E3E24D96E010E3F20DA6E5B
:100D000036C001F037C002F038C003F039C004F03B
:100D10003AC005F03BC006F03CC007F03DC008F00B
:100D20000A0E096E000E0A6E000E0B6E000E0C6E9F
:100D3000000E0D6E000E0E6E000E0F6E000E106E89
:100D4000E5EC0BF001C026F002C027F003C028F04C
:100D500004C029F005C02AF006C02BF007C02CF013
:100D600008C02DF026C013F028C014F06EEC10F06F
:100D70001350300FDF6E3006D8A031063206D8A0EF
:100D8000330636C001F037C002F038C003F039C076
:100D900004F03AC005F03BC006F03CC007F03DC08F
:100DA00008F00A0E096E000E0A6E000E0B6E000EA1
:100DB0000C6E000E0D6E000E0E6E000E0F6E000E0D
:100DC000106E6DEC09F001C036F002C037F003C0C0
:100DD00038F004C039F005C03AF006C03BF007C057
:100DE0003CF008C03DF03FBE20D03F5003E13E0440
:100DF000D8A01BD036503710381039103A103B109D
:100E00003C103D10D8A473D731BE05D0315002E15B
:100E10003004D8B06CD733BE08D0335003E132046D
:100E2000D8A003D00001C2B362D734503510D8A483
:100E300003D00001C2A517D03E06D8A03F0634500B
:100E40003510D8A404D0000E2F6E2B0E03D0000E48
:100E50002F6E2D0E2E6E6F0E3E24D96E010E3F208A
:100E6000DA6E2EC0DFFF1CC011F01DC012F06F0E35
:100E70003E24136E010E3F20146E32C015F033C0B5
:100E800016F043EC0EF011C01CF012C01DF0120061
:100E900036C1D9FF37C1DAFFDFCFF6FF060EF76E96
:100EA0000800F550250AD8A495D036C1D9FF37C11E
:100EB000DAFFDF2A000E0001BF6F000EBE6FBEC05A
:100EC000C2F0BFC0C3F0C069C16936C1D9FF37C124
:100ED000DAFFDFCFF6FF060EF76E0800F550640A62
:100EE000D8B40DD036C1D9FF37C1DAFFDFCFF6FF56
:100EF000060EF76E0800F550690AD8A43ED036C138
:100F0000D9FF37C1DAFFDF2A38C1D9FF39C1DAFF8B
:100F1000DFCF3AF1020EDE26DFCF3BF1000EDD22FD
:100F20003AC1D9FF3BC1DAFFDECF3CF1DDCF3DF165
:100F30000101000E3DBFFF0E3E6F3F6F406F416FDE
:100F4000426F436F34C110F135C111F13CC112F150
:100F50003DC113F13EC114F13FC115F140C116F17D
:100F600041C117F142C118F143C119F1F7EC04F086
:100F700010C134F111C135F1120036C1D9FF37C1AA
:100F8000DAFFDFCFF6FF060EF76E0800F550250AF0
:100F9000D8A415D036C1D9FF37C1DAFFDF2A000E39
:100FA000AD6F250EAC6F34C1AEF035C1AFF0A3EC20
:100FB0000DF0000E0101356F010E346F120036C1C5
:100FC000D9FF37C1DAFFDF2A000E0101356F000EAD
:100FD000346F120036C1D9FF37C1DAFFDFCFF6FF19
:100FE000060EF76E0800F5500001AC6FAD6B34C112
:100FF000AEF035C1AFF0A3EC0DF036C1D9FF37C16B
:10100000DAFFDF2AD6D742C0D9FF43C0DAFFDFCFED
:10101000F6FF060EF76E0800F550250AD8A492D008
:1010200042C0D9FF43C0DAFFDF2A000E0001BF6FC4
:10103000000EBE6FBEC0C2F0BFC0C3F0C069C169C0
:1010400042C0D9FF43C0DAFFDFCFF6FF060EF76ECE
:101050000800F550640AD8B40DD042C0D9FF43C08F
:10106000DAFFDFCFF6FF060EF76E0800F550690ACB
:10107000D8A43DD042C0D9FF43C0DAFFDF2A44C024
:10108000D9FF45C0DAFFDFCF46F0020EDE26DFCF04
:1010900047F0000EDD2246C0D9FF47C0DAFFDECFA1
:1010A00048F0DDCF49F0000E49BEFF0E4A6E4B6E90
:1010B0004C6E4D6E4E6E4F6E40C01CF041C01DF028
:1010C00048C01EF049C01FF04AC020F04BC021F0BC
:1010D0004CC022F04DC023F04EC024F04FC025F08C
:1010E00025EC06F01CC040F01DC041F0120042C0CB
:1010F000D9FF43C0DAFFDFCFF6FF060EF76E080018
:10110000F550250AD8A414D042C0D9FF43C0DAFF55
:10111000DF2A000E026E250E016E40C003F041C0B2
:1011200004F0F3EC0DF0000E416E010E406E120063
:1011300042C0D9FF43C0DAFFDF2A000E416E000E25
:10114000406E120042C0D9FF43C0DAFFDFCFF6FF86
:10115000060EF76E0800F550016E026A40C003F0FB
:1011600041C004F0F3EC0DF042C0D9FF43C0DAFFF8
:10117000DF2AD9D7000E0001AD6F01010FAF13D0E8
:101180000F1F0E1F0D1F0C1F0B1F0A1F091F086DBD
:10119000000E09230A230B230C230D230E230F23F8
:1011A000010E0001AD6F010107AF13D0071F061F2D
:1011B000051F041F031F021F011F006D000E0123E6
:1011C000022303230423052306230723010E000122
:1011D000AD1B20EEAEF0070EDE6AE806FDE201016F
:1011E000085109110A110B110C110D110E110F11DB
:1011F000D8B44ED0010E0001AC6F0BD0D890083798
:1012000009370A370B370C370D370E370F37000108
:10121000AC2B01010FAFF2D70001D890AE37AF373A
:10122000B037B137B237B337B437B53701010851EA
:10123000005D095101590A5102590B5103590C51D2
:1012400004590D5105590E5106590F510759D8A08F
:1012500012D00851005F0951015B0A51025B0B512A
:10126000035B0C51045B0D51055B0E51065B0F5186
:10127000075B0001AE810101D8900F330E330D33AF
:101280000C330B330A33093308330001AC2FC4D7B6
:101290000001AD51D8B410D0B51FB41FB31FB21F99
:1012A000B11FB01FAF1FAE6D000EAF23B023B1232F
:1012B000B223B323B423B523AEC000F1AFC001F114
:1012C000B0C002F1B1C003F1B2C004F1B3C005F186
:1012D000B4C006F1B5C007F11200000E126E10AED8
:1012E00012D0101E0F1E0E1E0D1E0C1E0B1E0A1EEF
:1012F000096C000E0A220B220C220D220E220F2254
:101300001022010E126E08AE12D0081E071E061E15
:10131000051E041E031E021E016C000E0222032283
:1013200004220522062207220822010E121A20EEAC
:1013300013F0070EDE6AE806FDE209500A100B10F2
:101340000C100D100E100F101010D8B446D0010E56
:10135000116E0AD0D89009360A360B360C360D3687
:101360000E360F361036112A10AEF4D7D890133639
:101370001436153616361736183619361A360950F9
:10138000015C0A5002580B5003580C5004580D5081
:1013900005580E5006580F50075810500858D8A03E
:1013A00011D00950015E0A50025A0B50035A0C50DA
:1013B000045A0D50055A0E50065A0F50075A105035
:1013C000085A1380D89010320F320E320D320C3280
:1013D0000B320A320932112EC9D71250D8B410D0AC
:1013E0001A1E191E181E171E161E151E141E136C0B
:1013F000000E1422152216221722182219221A2250
:1014000013C001F014C002F015C003F016C004F0C0
:1014100017C005F018C006F019C007F01AC008F090
:101420001200000E956E010E936E070E946E0F0E55
:10143000C16ED59CD59AD596F80ED516D58ECF0E01
:10144000D76E2C0ED66ECD8ECD86CD92100ECD6E73
:10145000F294F28AF19AF090F086F292F288F28E8B
:10146000F18CD09E8194819A819C819E3F0E836EE7
:10147000800E0101006F250E016F000E026F50EC0F
:101480000BF082A033D0010167516811D8A42ED08F
:10149000680E01015C6FE40EE82EFED75C2FFCD7CE
:1014A00000F0020E01016E6F2B0E6D6F5D0E4A6F24
:1014B000010E4B6F040E4C6F6DC14DF16EC14EF1BC
:1014C00059EC0FF05D0E0001B76F010EB86F010E01
:1014D000B96FD9EC10F05D0EAD6F010EAE6FC3ECBD
:1014E0000FF0000E0101686F010E676F82A41AD021
:1014F00001016B516C11D8A415D0680E01015C6F0D
:10150000E40EE82EFED75C2FFCD700F0000E0101A0
:101510006C6F010E6B6F81840D0EE82EFED700F00C
:10152000819407D082B405D0000E01016C6F000ECB
:101530006B6F82A2A6D7010169516A11D8A4A1D705
:10154000680E01015C6FE40EE82EFED75C2FFCD71D
:1015500000F0000E01016A6F010E696F020E6E6FDE
:101560009A0E6D6F8ED7000E0001AD6F010107AFAF
:1015700013D0071F061F051F041F031F021F011F93
:10158000006D000E012302230323042305230623F9
:101590000723010E0001AD6F01010FAF10D00F1F27
:1015A0000E1F0D1F0C1F0B1F0A1F091F086D000EB9
:1015B00009230A230B230C230D230E230F23085189
:1015C00009110A110B110C110D110E110F11D8B4C4
:1015D00041D0010E0001AC6F0BD0D890083709370D
:1015E0000A370B370C370D370E370F370001AC2B8E
:1015F00001010FAFF2D701010851005D09510159F6
:101600000A5102590B5103590C5104590D510559F6
:101610000E5106590F510759D8A010D00851005F3C
:101620000951015B0A51025B0B51035B0C51045BD6
:101630000D51055B0E51065B0F51075BD8900F33C0
:101640000E330D330C330B330A33093308330001E7
:10165000AC2FD1D70001AD51D8B411D00101071F73
:10166000061F051F041F031F021F011F006D000E30
:10167000012302230323042305230623072300C198
:1016800000F101C101F102C102F103C103F104C182
:1016900004F105C105F106C106F107C107F1120009
:1016A000000E0001AC6F240EAD6FF40EAE6F000E95
:1016B000AF6F040E0101036F00C104F101C105F118
:1016C00002C106F1032904D0D89004370537063744
:1016D000E82EFAD7010104510001B06F0101055154
:1016E0000001B16F010106510001B26FB36BE7EC6D
:1016F0000CF0FF0EAC250101076FFF0E0001AD21BC
:101700000101086FFF0E0001AE210101096F09AF51
:1017100006D0000E076F000E086F000E096F09BF9C
:101720004DD0095103E10805D8A048D0000E0001B2
:10173000AC6F240EAD6FF40EAE6F000EAF6F060EE1
:101740000101036F00C104F101C105F102C106F1FD
:10175000032904D0D890043705370637E82EFAD786
:10176000010104510001B06F010105510001B16F89
:10177000010106510001B26FB36BE7EC0CF0FF0EF4
:10178000AC250101076FFF0E0001AD210101086FBB
:10179000FF0E0001AE210101096F09BF0BD00951F5
:1017A00003E10805D8A006D0FF0E076F000E086FF2
:1017B000000E096F07C1AFFF200E03D007C1AFFFB6
:1017C000240EAC6E900EAB6E1200000E126E08AEC0
:1017D00012D0081E071E061E051E041E031E021E32
:1017E000016C000E02220322042205220622072297
:1017F0000822010E126E10AE10D0101E0F1E0E1E0B
:101800000D1E0C1E0B1E0A1E096C000E0A220B2256
:101810000C220D220E220F22102209500A100B104A
:101820000C100D100E100F101010D8B43CD0010E7B
:10183000116E0AD0D89009360A360B360C360D36A2
:101840000E360F361036112A10AEF4D70950015C4F
:101850000A5002580B5003580C5004580D500558AC
:101860000E5006580F50075810500858D8A010D0E6
:101870000950015E0A50025A0B50035A0C50045A88
:101880000D50055A0E50065A0F50075A1050085A5C
:10189000D89010320F320E320D320C320B320A3227
:1018A0000932112ED3D71250D8B410D0081E071EFB
:1018B000061E051E041E031E021E016C000E0222DF
:1018C00003220422052206220722082201C001F079
:1018D00002C002F003C003F004C004F005C005F02C
:1018E00006C006F007C007F008C008F0120015D0C7
:1018F0003F0E11D0060E0FD05B0E0DD04F0E0BD049
:10190000660E09D06D0E07D07D0E05D0070E03D0F0
:101910007F0E01D0670E076E44D003C005F004C0EF
:1019200006F00650000AD8A4E3D70550000AD8B440
:10193000DFD7010AD8B4DED7030AD8B4DDD7010A4D
:10194000D8B4DCD7070AD8B4DBD7010AD8B4DAD7C1
:10195000030AD8B4D9D7010AD8B4D8D70F0AD8B453
:10196000D7D7010AD8B4D6D7C3D78198819A819C9A
:10197000818E07C083FF060E056E300EE82EFED75F
:10198000052EFCD700D012008198819A818C03D05B
:101990008198818A04D0819EECD78188819A819C2C
:1019A000FAD701C005F002C006F00650000AD8A41C
:1019B00012000550000AD8B4D8D7010AD8B4E4D729
:1019C000030AD8B4E5D7010AD8A41200E6D7000E5E
:1019D000B56FB3AF0AD0B31FB21FB11FB06D000E09
:1019E000B123B223B323010EB56FAFAF0AD0AF1F3F
:1019F000AE1FAD1FAC6D000EAD23AE23AF23010EA5
:101A0000B51B000EB66F000EB76F000EB86F000E5C
:101A1000B96FB051B111B211B311D8B42AD0010EBF
:101A2000B46F06D0D890B037B137B237B337B42BD4
:101A3000B3AFF8D7D890B637B737B837B937B05152
:101A4000AC5DB151AD59B251AE59B351AF59D8A0F7
:101A500009D0B051AC5FB151AD5BB251AE5BB35187
:101A6000AF5BB681D890B333B233B133B033B42F58
:101A7000E1D7B551D8B408D0B91FB81FB71FB66D9C
:101A8000000EB723B823B923B6C0ACF0B7C0ADF091
:101A9000B8C0AEF0B9C0AFF012000001C2A10AD0C8
:101AA00005C1B5F006C1B6F003C1B7F004C1B8F086
:101AB0007EEC0FF0010108BF05D007C10BF108C192
:101AC0000CF104D0000E0C6F000E0B6F000E0A6FAD
:101AD000000E096F0DD0000EAD6F200EAC6F03C16C
:101AE000AEF004C1AFF0A3EC0DF00101094B0A2BDD
:101AF0000B51095D0A51800A0001B96F01010C51B7
:101B0000800A0001B959D8A0E6D7C2B10AD005C1F0
:101B1000B5F006C1B6F003C1B7F004C1B8F07EEC71
:101B20000FF005C1ACF006C1ADF087EC10F001017B
:101B30000B510001AC250101036F0C510001AD21D7
:101B40000101046F1200AE51AF11D8B404D0AE51F0
:101B5000AF11D8A404D0AC5107EC11F0120020EE64
:101B600009F0AE51D926AF51DA22DE50DE10D8B4DA
:101B700016D020EE09F0AE51D926AF51DA2210EE80
:101B800003F0AE51E126AF51E222DE50E65CE650B2
:101B9000800AB46FDE50800AB459D8B0120020EE2B
:101BA00003F0AE51D926AF51DA22DECFB0F0DDCF4F
:101BB000B1F0AEC0D9FFAFC0DAFFDECFB2F0DDCFFB
:101BC000B3F0B051B225D96EB151B321DA6EACC0C9
:101BD000DFFF20EE03F0AE51D926AF51DA22DE2A24
:101BE000000EDD22120003500410D8B404D00350BC
:101BF0000410D8A404D0015008EC11F0120020EE1B
:101C000009F00350D9260450DA22DE50DE10D8B491
:101C100016D020EE09F00350D9260450DA2210EE37
:101C200003F00350E1260450E222DE50E65CE65069
:101C3000800A096EDE50800A0958D8B0120020EEE2
:101C400003F00350D9260450DA22DECF05F0DDCFB1
:101C500006F003C0D9FF04C0DAFFDECF07F0DDCF06
:101C600008F005500724D96E06500820DA6E01C02E
:101C7000DFFF20EE03F00350D9260450DA22DE2ADB
:101C8000000EDD2212000001C2A10AD013C00AF02A
:101C900014C00BF011C00CF012C00DF004EC10F0E9
:101CA00016BE05D015C01AF016C01BF004D0000EE9
:101CB0001B6E000E1A6E000E196E000E186E0CD000
:101CC000000E026E200E016E11C003F012C004F06F
:101CD000F3EC0DF0184A192A1A50185C1950800AB2
:101CE000176E1B50800A1758D8A0EAD70001C2B15E
:101CF0000AD013C00AF014C00BF011C00CF012C0CF
:101D00000DF004EC10F013C001F014C002F09EECD2
:101D100010F01A500124116E1B500220126E120096
:101D2000000E0C6E0AAE06D0096C0A1ED8B00A2A44
:101D3000010E0C6E08AE06D0076C081ED8B0082A3B
:101D4000010E0C1A000E0E6E000E0D6E09500A10D8
:101D5000D8B41CD0010E0B6E04D0D89009360A36C8
:101D60000B2A0AAEFAD7D8900D360E360950075C0A
:101D70000A500858D8A005D00950075E0A50085AE2
:101D80000D80D8900A3209320B2EEDD70C50D8B402
:101D900004D00D6C0E1ED8B00E2A0DC007F00EC078
:101DA00008F01200000E066E02AE06D0016C021E94
:101DB000D8B0022A010E066E04AE04D0036C041ED5
:101DC000D8B0042A03500410D8B418D0010E056E00
:101DD00004D0D89003360436052A04AEFAD703504F
:101DE000015C04500258D8A004D00350015E045096
:101DF000025AD89004320332052EF1D70650D8B4D7
:101E000004D0016C021ED8B0022A01C001F002C049
:101E100002F0120052C055F0000E0101666F000E74
:101E2000656F12D050C040F051C041F0550E426E67
:101E3000436A53C044F054C045F003EC08F04050EE
:101E4000010165274150662355C0F6FF060EF76E67
:101E50000800F5500009D8A4E5D765C150F066C167
:101E600051F0120046C149F1000E666F000E656F19
:101E700012D044C134F145C135F1490E366F010E1F
:101E8000376F47C138F148C139F148EC07F0345198
:101E900065273551662349C1F6FF060EF76E080027
:101EA000F5500009D8A4E5D765C144F166C145F1F4
:101EB00012004D0E4F6F010E506F4AC151F14BC1D0
:101EC00052F1000E556F000E546F000E5B6F000E46
:101ED0005A6F510E446F010E456F4CC146F14F0EC3
:101EE000476F010E486F32EC0FF054514A25D96EFE
:101EF00055514B21DA6E000EDF6E1200000E01010B
:101F0000026F000E016F0DD000C1ACF00001AD6B8F
:101F1000B7C0AEF0B8C0AFF0A3EC0DF00101014BBB
:101F2000022B01510001B525D96E010102510001BA
:101F3000B621DA6EDF500101006F0051D8B41200F3
:101F4000E3D7590E5B6E5C6A56C05DF057C05EF019
:101F5000000E616E000E606E000E676E000E666E03
:101F60005D0E506E516A58C052F05B0E536E546A4B
:101F70000AEC0FF060505624D96E61505720DA6E8B
:101F8000000EDF6E1200000EAF6F000EB06F000E7D
:101F9000B16F10D0AF51AD25D96EB051AE21DA6E10
:101FA000DF50FBEC10F0010E0001AF27000EB02354
:101FB000000EB123AF51AD25D96EB051AE21DA6E0E
:101FC000DF50D8B41200E6D7000E046E000E056E86
:101FD000000E066E0FD004500224D96E0550032067
:101FE000DA6EDF5001EC11F0010E0426000E05221E
:101FF000000E062204500224D96E05500320DA6E2A
:10200000DF50D8B41200E7D7000E106E000E0F6E2E
:102010000BD00EC001F0026A0CC003F00DC004F03A
:10202000F3EC0DF00F4A102A0F500A24D96E10500D
:102030000B20DA6EDF500E6E0E50D8B41200E9D7C6
:10204000B2C0B6F0B0C0B4F0B1C0B5F0B62BB605B2
:10205000B36FB3C0F6FF060EF76EB4C0D9FFB5C0BC
:10206000DAFFB44BB52B0800F5CFDFFFDF50D8B453
:102070001200ECD70001AFBF05D0AF5110E1AE05A3
:10208000D8B00DD0AEC0B0F0AFC0B1F0B01FB11F2E
:10209000B04BB12BB0C0AEF0B1C0AFF01200AEC0CB
:1020A000AEF0AFC0AFF0120007C00BF005C009F0F2
:1020B00006C00AF00B2A0B04086E08C0F6FF060ED5
:1020C000F76E09C0D9FF0AC0DAFF094A0A2A0800D8
:1020D000F5CFDFFFDF50D8B41200ECD714BE05D027
:1020E000145010E11304D8B00DD013C015F014C073
:1020F00016F0151E161E154A162A15C013F016C026
:1021000014F0120013C013F014C014F01200ACC08D
:10211000AEF0ADC0AFF003D00001AC4BAD2BACC006
:10212000D9FFADC0DAFFDF50D8A4F6D70001AE5119
:10213000AC5DAC6FAF51AD59AD6F120001C003F093
:1021400002C004F002D0014A022A01C0D9FF02C035
:10215000DAFFDF50D8A4F7D70350015C016E0450BA
:102160000258026E120001EE65F02A0EEE6AE806D1
:10217000FDE100EEBAF01A0EEE6AE806FDE1769097
:102180007692000EF86E000111EF0AF00150030282
:10219000F3CF05F0F4CF06F001500402F350062609
:1021A00002500302F350062605C001F006C002F0FB
:1021B0001200B7C0ACF0B8C0ADF087EC10F0AC5175
:1021C000B725B06FAD51B821B16FB9C0B2F020ECF6
:1021D00010F012000CC001F00DC002F09EEC10F0E7
:1021E00001500C24056E02500D20066E0EC007F043
:1021F00054EC10F01200AC6FACA2FED7ACC0ADFF37
:102200001200016EACA2FED701C0ADFF1200120099
:022210001200BA
:020000040020DA
:08000000FFFFFFFFFFFFFFFF00
:020000040030CA
:0E000000FF02191EFF8385FF0FC00FE00F40A7
:00000001FF
